:020000022000DC
:1030000000000120950F0300BD0F0300BF0F030058
:10301000C10F0300C30F0300C50F03000000000031
:10302000000000000000000000000000C70F0300C7
:10303000C90F030000000000CB0F0300CD0F0300F9
:10304000D9850200CF0F03000D930200CF0F0300BC
:10305000CF0F0300CF0F030099890200CF0F0300A9
:10306000CF0F0300CF0F0300CF0F0300CF0F0300DC
:10307000CF0F0300CF0F0300CF0F0300CF0F0300CC
:10308000CF0F0300F1420200CF0F0300CF0F030068
:1030900091430200CF0F0300DD1F0300CF0F030099
:1030A000CF0F0300CF0F0300CF0F0300CF0F03009C
:1030B000CF0F0300CF0F030000000000000000004E
:1030C000CF0F0300CF0F0300CF0F0300CF0F03007C
:1030D000CF0F0300CF0F0300CF0F0300000000004D
:1030E00000000000000000000000000000000000E0
:1030F00000000000000000000000000000000000D0
:1031000000000000000000000000000000000000BF
:1031100000000000000000000000000000000000AF
:10312000000000000000000000000000000000009F
:10313000000000000000000000000000000000008F
:10314000000000000000000000000000000000007F
:10315000000000000000000000000000000000006F
:10316000000000000000000000000000000000005F
:10317000000000000000000000000000000000004F
:10318000000000000000000000000000000000003F
:10319000000000000000000000000000000000002F
:1031A000000000000000000000000000000000001F
:1031B000000000000000000000000000000000000F
:1031C00000000000000000000000000000000000FF
:1031D00000000000000000000000000000000000EF
:1031E00000000000000000000000000000000000DF
:1031F00000000000000000000000000000000000CF
:1032000010B5054C237833B9044B13B10448AFF320
:1032100000800123237010BDF02C0020000000006E
:103220006443030008B5034B1BB103490348AFF3E4
:10323000008008BD00000000F42C0020644303005F
:10324000154B002B08BF134B9D46A3F5803A002178
:103250008B460F461348144A121A0FF0DAF80F4B38
:10326000002B00D098470E4B002B00D09847002031
:10327000002104000D000D48002802D00C48AFF3D7
:1032800000800FF04FF82000290007F06FF80FF0D2
:1032900035F800BF00000800000001200000000019
:1032A00000000000F02C0020A43E002000000000E0
:1032B00000000000F0B595B0002415460F46084602
:1032C0001E4604F0C5FE384623460895082205A987
:1032D0001A9D09960D950A948DF82C400C9404F0D3
:1032E0001DFF9DF814308DF81040DDE9061003F045
:1032F0000302012A0290ADF80C102BD0022A04D050
:10330000384604F0B5FE15B0F0BDBDF81650C3F355
:10331000C202C3F38003AD098DF80E208DF80F3083
:103320000826082D2C4628BF0824334622460EA91D
:10333000384604F0F3FE2D1B214608AB02AA0EA866
:10334000264400F003FE002DEBD1384604F090FE39
:1033500015B0F0BDBDF814500598C5F38315C3F33F
:10336000C20CAA000EA9C3F38004C0F3952608235B
:1033700038468DF80EC08DF80F4004F0CFFE08AB34
:103380002A4630460EA9009302AB00F047FD3846AE
:1033900004F06EFE15B0F0BD014B01221A707047AB
:1033A000502D0020704700BF70B50E4D0E4888B0FC
:1033B00005F07EFE0FCD6C460FC495E80F0008ADFA
:1033C0000C2645F8206D84E80F00294600220648A7
:1033D00005F086FD08B100F047FF044B00221A708B
:1033E00008B070BD50360300582A00200C2D002074
:1033F00000B583B0044B0093044A4023FFF75AFF03
:1034000003B05DF804FB00BF11340200102D002052
:1034100010B5094C09480023D2B2237005F0CCFE48
:1034200030B9074B1B7813B12378002BFCD010BDAB
:1034300000F01AFFF5E700BF502D0020582A0020A9
:103440000C2D002070B50D4D0FCD88B06C460FC40B
:1034500095E80F0008AD0C2645F8206D84E80F00B4
:103460002946074A074805F03BFD08B100F0FCFE7D
:10347000054B01221A7008B070BD00BF5036030022
:1034800099330200582A00200C2D002010B5054C5D
:10349000FFF7D8FF2046042100F07EFC0123637271
:1034A00010BD00BF602A002008B50E4B0E48002258
:1034B000FF21C3F818249960C3E90022C3F814243B
:1034C00083F81C2404F080FD58B90849084BC91A38
:1034D000C90806D0074A034622F80C3B013399423B
:1034E000FAD108BD542D00207C360300B8430300F8
:1034F00068430300782C0020B9B130B41249134D51
:10350000491BC9081BD0124B5A88904218BF002291
:1035100005D116E0DC89844203F10C030AD00132A4
:103520009142F7D1002030BC7047084A02EBC0003E
:103530000068704705EBC200006830BC7047084661
:10354000F1E72846F8E700BFB843030068430300EB
:10355000782C0020064B032903EBC00005D004297A
:1035600001D140797047002070470079704700BF53
:10357000684303002DE9F04F584C94F81C648BB05D
:1035800016B10BB0BDE8F08FCDE904010AA8A3681D
:1035900000F80D6D029301F095FBD4E901C122689A
:1035A000039201EB0C0301339B1A032B5FD801F14B
:1035B00001080196A8EB020801EA0C0E04F214457A
:1035C00001200EF1030304EB8302F146444E56E85A
:1035D000007F47EA000A46E800AB9BF0000FF6D1F7
:1035E00055E8007F47EA000A45E800AB9BF0000F72
:1035F000F6D114F823309E07674610D113885288FD
:103600009B0903EB921301331F4401EA070909F1F7
:10361000030304EB830214F823309B07EED004EB82
:1036200089090237D9F80C30079303F00303022B02
:103630004CD0BDF81C30C3F383131F44019B1E46BE
:1036400055E8003F03EA060245E8002999F0000F1B
:10365000F6D143B108EB0703032B676007D8BC46DC
:1036600001EA070EADE708EB0C03032BA9D9039D74
:103670009DF81B00AB1C236001F04AFB029E06EA8A
:1036800005020332284614F82230049D012161F31B
:103690000103290961F3820365F3C50304F82230AD
:1036A00034F822306FF3891324F82230431C54F885
:1036B0002210280C3340059D04EB830365F39F2102
:1036C00044F82210D8600BB0BDE8F08FBDF81E3072
:1036D0009B09033307EB9307B0E700BF542D00208D
:1036E0006C3100202DE9F04F5C4C94F81C648BB0D9
:1036F00016B10BB0BDE8F08F03900AA8A36800F8DC
:103700000D6DCDE90412029301F0DCFAD4E901C198
:10371000D4F8008001EB0C030133A3EB0803042B66
:103720005FD84B1CA3EB08030096019301EA0C0E33
:1037300004F2144501200EF1030304EB8302F14669
:10374000474E56E8007F47EA000A46E800AB9BF088
:10375000000FF6D155E8007F47EA000A45E800ABC4
:103760009BF0000FF6D114F823309E07674610D166
:10377000138852889B0903EB921301331F4401EA1B
:10378000070909F1030304EB830214F823309B07B4
:10379000EED004EB89090237D9F80C30079303F017
:1037A0000303022B53D0BDF81C30C3F383131F4413
:1037B000009B1E4655E8003F03EA060245E8002943
:1037C00099F0000FF6D143B1019B67603B44042B95
:1037D00007D8BC4601EA070EADE7019B6344042B02
:1037E000A9D908F103039DF81B00236001F090FAAA
:1037F000029E039D06EA08020332012114F82230DA
:10380000280961F3010360F3820365F3C50304F83B
:10381000223034F8223061F3891324F822304144F5
:1038200008F102032846314054F822503340049EE8
:1038300066F39F2544F8225004EB810104EB8303D7
:10384000059A000CC860DA600BB0BDE8F08FBDF8D7
:103850001E309B09033307EB9307A9E7542D002083
:103860006C3100202DE9F04F604C94F81C648DB051
:1038700016B10DB0BDE8F08FCDE904010CA8CDE97B
:10388000062300F80D6DA368039301F01BFAD4E939
:1038900001C1D4F8008001EB0C030133A3EB080352
:1038A000052B5FD84B1CA3EB08030196029301EA9A
:1038B0000C0E04F2144501200EF1030304EB830205
:1038C000F1464B4E56E8007F47EA000A46E800AB57
:1038D0009BF0000FF6D155E8007F47EA000A45E863
:1038E00000AB9BF0000FF6D114F823309E0767461B
:1038F00010D1138852889B0903EB921301331F44A4
:1039000001EA070909F1030304EB830214F82330E9
:103910009B07EED004EB89090237D9F80C300993E4
:1039200003F00303022B5AD0BDF82430C3F38313F2
:103930001F44019B1E4655E8003F03EA060245E886
:10394000002999F0000FF6D143B1029B67603B4418
:10395000052B07D8BC4601EA070EADE7029B63447E
:10396000052BA9D908F104039DF82300236001F079
:10397000CFF90398049F00EA08020332012114F8EA
:10398000223061F30103390961F3820367F3C50350
:1039900004F8223034F82230022161F3891324F82C
:1039A000223008F10106414408F1030354F8225083
:1039B000064001400340380C059F04EB860604EBEB
:1039C000810167F39F2544F82250069AF06004EBCA
:1039D0008303CA60079ADA600DB0BDE8F08FBDF8C6
:1039E00026309B09033307EB9307A2E7542D0020F1
:1039F0006C3100202DE9F04F644C94F81C648DB0BC
:103A000016B10DB0BDE8F08FCDE904010CA8CDE9E9
:103A1000062300F80D6DA368039301F053F9D4E970
:103A200001C1D4F8008001EB0C030133A3EB0803C0
:103A3000062B5FD84B1CA3EB08030196029301EA07
:103A40000C0E04F2144501200EF1030304EB830273
:103A5000F1464F4E56E8007F47EA000A46E800ABC1
:103A60009BF0000FF6D155E8007F47EA000A45E8D1
:103A700000AB9BF0000FF6D114F823309E07674689
:103A800010D1138852889B0903EB921301331F4412
:103A900001EA070909F1030304EB830214F8233058
:103AA0009B07EED004EB89090237D9F80C30099353
:103AB00003F00303022B61D0BDF82430C3F383135A
:103AC0001F44019B1E4655E8003F03EA060245E8F5
:103AD000002999F0000FF6D143B1029B67603B4487
:103AE000062B07D8BC4601EA070EADE7029B6344EC
:103AF000062BA9D908F105039DF82300236001F0E6
:103B000007F90398049D00EA08020332012114F822
:103B1000223061F30103290961F3820365F3C503D0
:103B200004F8223034F82230032161F3891324F899
:103B3000223008F1010708F10206414408F10403AC
:103B400054F822C00740064001400340280C059D60
:103B500004EB870704EB860665F39F2C44F822C02C
:103B600004EB8101069AF860F260079ACA6004EBE0
:103B70008303169ADA600DB0BDE8F08FBDF82630E9
:103B80009B09033307EB93079BE700BF542D0020ED
:103B90006C3100202DE9F0477B4CD4E90035AB4275
:103BA00084B000F0D980A66806EA0501CA1C00238B
:103BB000C4F8143414F82230980704EB82020FD1B1
:103BC000138852889B0903EB921301331D4406EAC4
:103BD0000501CB1C04EB830214F823309B07EFD0C4
:103BE00004EB81016B1CCA680192334004EB830330
:103BF00002F00302DB680293022A05F1020764D097
:103C0000BDF804306148C3F38311062928BF06219B
:103C100061F3891302318900ADF8043004F0D6F95C
:103C20008046002800F0918004F012FA0023082258
:103C300001A9404604F044FABDF8043013F4707F43
:103C400000F0A0806FF0010AAAEB050A082507EA38
:103C5000060103312B46042204EB8101404604F0A7
:103C60002FFABDF8043007F101090AEB0902C3F38A
:103C7000831393424F4605F10405E8D8444B0022D4
:103C800053E8001F01EA020043E8000595F0000F29
:103C9000F6D1D4F810545DB151B96B7A284641463B
:103CA000002B55D02B681B6898476D68002DF4D108
:103CB000404604F0DDF9C4F804902068B0EB090038
:103CC00018BF012004B0BDE8F087BDF806302F48CA
:103CD0004FEA93194D46502D28BF502565F38F1399
:103CE00005F10801ADF8063004F070F9804660B3C4
:103CF00026EA070A0AF1010A04F0AAF94FEA8A0A39
:103D00000023082201A9404604F0DAF955452ED9CE
:103D1000EBB2BAF1000F23D006EA0701A3EB0A03C6
:103D2000033104EB8101DDB252460823404604F022
:103D3000C7F92A460AF108031649404604F0C0F9BB
:103D400009F1030907EB990998E7D4F80490B4E75F
:103D50006D68002DA1D1ABE7002004B0BDE8F0876D
:103D60002A4608230B49404604F0AAF9E8E706EA88
:103D70000701033104EB81012A460823404604F081
:103D80009FF9DDE7B94679E7542D00207C36030022
:103D900068310020602D002030B4154DD5F8104456
:103DA000002154B1237A8B4213D0234602E01A7AC1
:103DB0008A420ED05B68002BF9D10172D5F810341D
:103DC0007BB15B684360D5F81034586030BC08465E
:103DD000704701310A29E4D14FF0FF31084630BC69
:103DE0007047C5F81004436030BC0846704700BFF8
:103DF000542D002038B5084BD3F81044012583F822
:103E00001C543CB12368657220465B68984764681F
:103E1000002CF7D138BD00BF542D00202DE9F0470C
:103E200084B01D460C9C002394F80C802373EB791E
:103E300081460E461746DBB1062F09D8DFE807F0AA
:103E40000430363D46515E004946204603F016FADE
:103E5000EB792BB92B7AEBB93649204603F00EFAF1
:103E6000204603F0FFF984F80C8004B0BDE8F08729
:103E70002B7AA888A979002B4FD12F4B53F821A07A
:103E80000021FFF739FB524603462C49204603F038
:103E9000F5F9D1E72A4A2B49204603F0EFF9DBE791
:103EA00032684946204603F0E9F9D1E74946D6E9A8
:103EB0000023204603F0E2F9CAE7B168D6E90023FF
:103EC00020460091494603F0D9F9C1E7D6E902013D
:103ED000D6E90023019100904946204603F0CEF92F
:103EE000B6E7D6E90371B068D6E900230291CDE9BF
:103EF00000074946204603F0C1F9A9E7D6E90410B6
:103F0000D6E900230390D6E902070291CDE9000724
:103F10004946204603F0B2F99AE7FFF71BFB0A4B2C
:103F2000084953F82020204603F0A8F9A979A88869
:103F3000A3E700BFE4360300E8360300D0360300F1
:103F4000DC360300CC3603009436030008295BD826
:103F50002DE9F04F1D46914600232A7B2B7383B039
:103F600099F80730019207460E46002B4DD0DFF836
:103F700008B1DFF80881002405E03A5D013403F060
:103F80007DF9082C09D0A64241462846F5D8594665
:103F9000013403F073F9082CF5D13049DFF8E080E3
:103FA000DFF8E0B0284603F069F9002411E017F8C3
:103FB00004A00EF0DBF950445946437813F0970FF4
:103FC00014BF52462E222846013403F057F9082C1C
:103FD00008D0A64241462846E9D8013403F04EF9FC
:103FE000082CF6D199F8073013B999F8083003BBBB
:103FF0001B49284603F042F9284603F033F9019B98
:104000002B7303B0BDE8F08F704799F80830B9F80A
:10401000040099F8061093B9124B53F8214000217F
:10402000FFF76AFA224603460F49284603F026F9AD
:104030009DE70E4A0E49284603F020F9D8E7FFF71E
:1040400089FA0C4B0A4953F82020284603F016F948
:1040500099F80610B9F80400DEE700BFC436030083
:10406000E4360300E8360300D0360300DC360300F4
:10407000CC36030094360300C0360300B836030084
:10408000D8360300C83603002DE9F84F254B93F8C6
:1040900000C0BCF1000F31D0DFF88CB0DFF88CA08D
:1040A000DFF88C900024012703E00134E4B264457A
:1040B00024D226B2DBF80050DAF8003015F83600CA
:1040C00007FA00F10B4205EBC608EED023EA010324
:1040D000CAF8003004F056FC15F83660D9F8003004
:1040E00007FA06F52B4000FA06F18B4208D00D4B7B
:1040F000013493F800C0E4B26445DAD3BDE8F88F28
:1041000098F80110D8F80430A1F10101B1FA81F159
:104110004909091AB1FA81F14909002BE7D0304663
:104120009847E4E7443200207432002070320020C7
:104130006C32002070B50646114800F089FD40B988
:10414000104D01242B68B440234203D023EA040419
:104150002C6070BD304604F015FC0B490A6860B154
:1041600022432B6809480A601C4301682C600448FC
:104170000022BDE8704000F015BD22EA0402F0E71D
:104180004C320020703200206C3200204832002077
:10419000042A34D92DE9F04182B00F460646144670
:1041A00004F0B6FA002834D01C4A1D4B1D49166095
:1041B0001F701D4A1D4B0C6000257C1E15601D6084
:1041C000E4B2F7B106EBC404194F083E4FF0030800
:1041D00001E0B44215D0A37820788DF804803A46E7
:1041E00001A98DF806508DF807508DF8053004F0C0
:1041F00099FA083C0028ECD002B0BDE8F081072015
:1042000070470C4A0C48002100F0BAFC02B0BDE82F
:10421000F08104F043FA0028C6D0EDE774320020A4
:1042200044320020483200206C32002070320020DE
:1042300035410200894002005C37030070B5084D2B
:104240002B785BB1074E00243368012113F834004A
:1042500004F036FB2B780134A342F5D8002070BD62
:10426000443200207432002000B585B00023039052
:10427000194601AA44F20100ADF80430029300F09F
:1042800003F805B05DF804FB10B5134C1349208802
:10429000000440F00100FFF76DF9FFF7ABFDFFF7F9
:1042A00079FC0028FBD10E4B1B68DB0700D5FFDE35
:1042B00020880C49000440F00300FFF75BF9BFF3CE
:1042C0004F8F0949094BCA6802F4E0621343CB607F
:1042D000BFF34F8F00BFFDE7782C0020603703004D
:1042E000F0ED00E06837030000ED00E00400FA059F
:1042F000F8B5204A204B0024C2F84041C2F844419E
:10430000C2F84841C2F84C41C2F80041C2F8044129
:104310001B6833B31949D2F804550A68AD1A1A68F4
:1043200025F07F45AA4227460DD8197CDE69AD1AD3
:10433000144419B11F74D3E9052090471EB13346C8
:104340001A68AA42F1D90E490E4A0B7812789A429D
:1043500008D00D490D4A41F823404FF48013C2F8AC
:104360000031F8BD531CDBB2022B08BF00230B70D9
:10437000EFE700BF00100140983300209433002085
:1043800091330020903300208833002000E100E0CA
:104390002DE9F04FAF48B04AB04913780978D0F80A
:1043A0000090AF4889B000680290994200F04D81BA
:1043B0000133DBB2022B08BF00231370A94A52F865
:1043C0002300A44B09EB000727F07F471F60029BE7
:1043D00000252A462C46AC46B3B11968814200F24A
:1043E0004D81DD68C3F800C0401A0C44D9693DB165
:1043F00009EB040626F07F46C3E90165DA611A4637
:104400000B460125002BE8D1002D40F09B810123B4
:1044100002990693B946944B944C1B7805934FF040
:1044200000084B46CDF81C80CDF80C804FF0010EF3
:10443000C1468C469B4642B3D2E901651346D26918
:104440008B48A6EB0B0121F07F41814259D82944CA
:104450001960002083F810E0C3E90100D861BCF1C5
:10446000000F72D0DCF8000088425FD2664603E09D
:104470002868884263D22E46F569091A002DF7D1C3
:104480001960DD61F361002AD6D1CA46CDF804B0C7
:1044900094F8019021784FF0000B1646894576D0AC
:1044A000084600EB400004EBC0004A1CA378D1B2E0
:1044B000027921708B4204BF84F800B00021022AE7
:1044C000836853D0032A44D0012AE7D11F7C002FF0
:1044D000E4D13246C6685E6005699D604169D96075
:1044E000816999610599DDF804B0D1460029A7D00A
:1044F0003E46A6EB0B015E485F6021F07F418142A2
:10450000A5D9ABEB060121F07F41A94202D2691A7D
:1045100019609EE7002183F810E0C3E9001199605B
:10452000D961BCF1000F10D0DCF80000411ACCF8C2
:1045300000104FF00108C3F81CC09C467BE7401AEE
:1045400028601960DD61F3619DE79C464FF001082A
:1045500071E7BCF1000FA1D0624600231374D26949
:10456000002AFBD194464FF0010891E7BCF1000FFF
:1045700009D06345624603D192E083424ED00246A1
:10458000D0690028F9D183F810B0894588D1C34695
:10459000DDF80490D046BBF1000F40F0D780079BB8
:1045A000002B40F01A82B8F1000F02D02E4B059A72
:1045B0001A702B4B1A68039B1BB9029B9A4200F09E
:1045C000C980002A00F0CD802A48224BD0F804157B
:1045D0001B68294C15682678CA1A22F07F420332DC
:1045E000002E00F0A78195422CBF5B199B18214833
:1045F00023F07F43C0F84035D0F80425521A5B1AE7
:1046000022F07F4223F07F4303329A4200F2488136
:10461000154A0023137009B0BDE8F08F934237D0DC
:10462000674604931D46E8692D68D06128B1026889
:104630002A440260217894F801906745A3D00122B2
:10464000BC46039283F810B09FE700220692014611
:10465000E1E600BF94330020903300209133002026
:1046600098330020883300208433002078320020E3
:10467000FEFF7F000010014085330020002D40F038
:10468000B081091A19600123B94606930299C2E65E
:104690000493DCF81C7037B14FF00108049DC2E7A9
:1046A000CDF810C0F5E77748774DC0F808E07748B7
:1046B0004FF02F08006800BF00BF00BF00BF00BF61
:1046C00000BF00BF00BFA8422FD000BF00BF00BF87
:1046D00000BF00BF00BF00BF00BF00BF00BF00BFE2
:1046E00000BF00BF00BF00BF00BF00BF00BF00BFD2
:1046F00000BF00BF00BF00BF00BF00BF00BF00BFC2
:1047000000BF00BF00BF00BF00BF00BF00BF00BFB1
:1047100000BF00BF00BF00BF00BF00BF00BF00BFA1
:1047200000BF00BF00BF00BF00BFB8F10108C2D189
:104730004FF0010A0197CDF814A0CDF81CA0D04687
:10474000049D70E7524902930B6060E6504BC3F83A
:1047500000C024E7069B002B3FF45AAF002A7FF4E9
:1047600033AF48494B4B494E474C4FF480304FF4E0
:1047700000370125C3F88070C1F848032F23C1F822
:1047800008034D6030681E4600BF00BF00BF00BF79
:1047900000BF00BF00BF00BFA0422FD000BF00BFBE
:1047A00000BF00BF00BF00BF00BF00BF00BF00BF11
:1047B00000BF00BF00BF00BF00BF00BF00BF00BF01
:1047C00000BF00BF00BF00BF00BF00BF00BF00BFF1
:1047D00000BF00BF00BF00BF00BF00BF00BF00BFE1
:1047E00000BF00BF00BF00BF00BF00BF00BF00BFD1
:1047F00000BF00BF00BF00BF00BF00BF013EC3D16C
:104800008D6025490A6000BF00BF00BF00BF00BF28
:1048100000BF00BF00BFA0422FD000BF00BF00BF3D
:1048200000BF00BF00BF00BF00BF00BF00BF00BF90
:1048300000BF00BF00BF00BF00BF00BF00BF00BF80
:1048400000BF00BF00BF00BF00BF00BF00BF00BF70
:1048500000BF00BF00BF00BF00BF00BF00BF00BF60
:1048600000BF00BF00BF00BF00BF00BF00BF00BF50
:1048700000BF00BF00BF00BF00BF013BC3D1074B5B
:104880001A70C5E6001001400024F400882A0020B8
:104890009833002000E100E09433002085330020AD
:1048A000D0F80435514AC0F84035126850492F23DA
:1048B00000BF00BF00BF00BF00BF00BF00BF00BF00
:1048C0008A422FD000BF00BF00BF00BF00BF00BFA3
:1048D00000BF00BF00BF00BF00BF00BF00BF00BFE0
:1048E00000BF00BF00BF00BF00BF00BF00BF00BFD0
:1048F00000BF00BF00BF00BF00BF00BF00BF00BFC0
:1049000000BF00BF00BF00BF00BF00BF00BF00BFAF
:1049100000BF00BF00BF00BF00BF00BF00BF00BF9F
:1049200000BF00BF013BC3D1324B4FF40032C3F88C
:1049300000216DE62F4EDFF8B4E0DFF8B4C04FF48D
:104940008037C0F84473C0F804734FF40037C6F8DA
:104950008071376001260660DEF800702F2000BFEE
:1049600000BF00BF00BF00BF00BF00BF00BF674562
:104970002FD000BF00BF00BF00BF00BF00BF00BFFF
:1049800000BF00BF00BF00BF00BF00BF00BF00BF2F
:1049900000BF00BF00BF00BF00BF00BF00BF00BF1F
:1049A00000BF00BF00BF00BF00BF00BF00BF00BF0F
:1049B00000BF00BF00BF00BF00BF00BF00BF00BFFF
:1049C00000BF00BF00BF00BF00BF00BF00BF00BFEF
:1049D00000BF0138C3D1267005E6074BC3F800902D
:1049E000E1E5064C029323604BE600BF882A0020D5
:1049F0000024F40000E100E094330020983300200C
:104A0000F0B4554B554A564E564C4FF480304FF447
:104A100000310125C2F88010C3F848032F21C3F8E4
:104A200008035D6030680E4600BF00BF00BF00BFD6
:104A300000BF00BF00BF00BFA0422FD000BF00BF1B
:104A400000BF00BF00BF00BF00BF00BF00BF00BF6E
:104A500000BF00BF00BF00BF00BF00BF00BF00BF5E
:104A600000BF00BF00BF00BF00BF00BF00BF00BF4E
:104A700000BF00BF00BF00BF00BF00BF00BF00BF3E
:104A800000BF00BF00BF00BF00BF00BF00BF00BF2E
:104A900000BF00BF00BF00BF00BF00BF013EC3D1C9
:104AA0009D6000BF00BF00BF00BF00BF00BF00BFD0
:104AB00000BFA0422FD000BF00BF00BF00BF00BF9B
:104AC00000BF00BF00BF00BF00BF00BF00BF00BFEE
:104AD00000BF00BF00BF00BF00BF00BF00BF00BFDE
:104AE00000BF00BF00BF00BF00BF00BF00BF00BFCE
:104AF00000BF00BF00BF00BF00BF00BF00BF00BFBE
:104B000000BF00BF00BF00BF00BF00BF00BF00BFAD
:104B100000BF00BF00BF0139C3D1134E134C14496D
:104B2000144D154F00203070206008704FF4801431
:104B30000B26E0212880AE703870104DC2F88041FD
:104B400082F814131460C3F8080582F81113D3F81F
:104B500004352B60F0BC70470010014000E100E01C
:104B6000882A00200024F400853300209833002098
:104B700090330020783200209133002094330020BD
:104B8000074B9B784BB132B128B10368187C20B930
:104B900059745A617047072070470820704700BF5A
:104BA000783200202DE9F047264CA37882B0002B04
:104BB0003CD000283AD004293CD94369002B35D099
:104BC000814602A899F811300026012B00F8016DEA
:104BD0000CBF8846B04617468A4600F073F86378E3
:104BE000A17822789DF807005D1CEDB2A94208BFAC
:104BF0003546AA4222D003EB430304EBC303012151
:104C0000114AC3F808901971D2F804256570C3E9F8
:104C1000032AC3E9058700F07BF80C4B4FF48012A0
:104C20003046C3F8002102B0BDE8F087082002B08A
:104C3000BDE8F087072002B0BDE8F08700F068F813
:104C40000420F0E7783200200010014000E100E08D
:104C5000F0B51A4CA37883B043B338B343692BB390
:104C6000064602A8002500F8015D357400F02AF818
:104C70006278A77821789DF80700531CDBB29F4229
:104C800008BF2B46994214D002EB420204EBC20249
:104C9000022196601171637000F03AF8084B4FF4EE
:104CA00080122846C3F8002103B0F0BD082003B0ED
:104CB000F0BD00F02DF80420F9E700BF78320020A5
:104CC00000E100E070B4EFF3108472B60D4B9A6807
:104CD000AAB90D490D4E01259D60D1F8805035408F
:104CE0001D60C1F88060D1F884505D604FF0FF33E3
:104CF000C1F88430027004B962B670BC70470123F9
:104D00000370F8E7943E002000E100E0FC06FFBDE0
:104D1000094B9A687AB170B910B4EFF3108172B68A
:104D2000064A1C6814605C685460986001B962B6F9
:104D30005DF8044B70477047943E002000E100E0AE
:104D4000F0B52A4C2A4F668862683601BB1983B0D9
:104D50005968002A46D05388033302EB830201F5D9
:104D60008050824225D21368013322D04FF6FF755E
:104D70009388AB4214D0138893B1626053881D4D61
:104D80001D48AE882968033300259BB200959B001F
:104D900001EB86010325257002F0ECFD03B0F0BDA8
:104DA0005388033302EB8302824202D21368013339
:104DB000DED13E44B3896BB10E4B0F481968022215
:104DC0009A80052500230122257003B0BDE8F0403C
:104DD00002F004BE0122084802F000FE0423237002
:104DE00003B0F0BD01F10802B9E700BFBC330020F9
:104DF0004834002068340020642C0020F0B543685B
:104E00008C461BB12E4AD468A34233D200232D4EC8
:104E1000ACF800304FF0010E4FF6FF7577680023B5
:104E200007F58054C3B15A88033203EB8203A342CF
:104E300016D21A68013213D09A88AA42F3D01A887F
:104E4000002AF0D0026899689142EBD11E4A436073
:104E5000138903810120F0BD07F10803A342E8D3C1
:104E6000BEF1020FACF800E006F1100625D04FF0BD
:104E7000020ED3E712699342C8D813F00305C5D1D7
:104E8000114A048912899442C0D104689A689442F4
:104E9000BCD10C484268934203D902F58052934238
:104EA00007D34269934208D902F58052934204D253
:104EB0000125ACF800500120F0BD0020F0BD00BF7E
:104EC000642C002048340020BC3300202DE9F04F32
:104ED000AF4C256FEE00A6EB05084FEA88088BB0B3
:104EE00014F80820531E8146052B63D8DFE803F031
:104EF0005437371E1E03002840F0A280DFF8AC8232
:104F000098F80C2098F80030002A00F08C82013BC1
:104F100088F80C00062B00F25D82DFE813F05E02D9
:104F200047026D014B015B024A022D02002874D139
:104F3000771BBF0004EB070A9AF80420012A00F04F
:104F4000F382C0F0DD82022A0CBF00200F20069001
:104F5000052B31D8DFE803F05D94A6887A76711BC3
:104F600004EB81018B4FB1F814A007EB0A1A00285B
:104F700055D1887DBAF80890DAF8041001EB890958
:104F8000062800F29D83DFE810F0EC01CF019F01BD
:104F9000BA01790160014B01002833D1A04498F88F
:104FA0000430032B00F2EB82DFE813F0E400D200C0
:104FB000C50097000F230693774D05F1100655F8AD
:104FC000043B05A803B19847B542F8D1206FC0EB68
:104FD000C00004EB80001C2200210DF01AFA636F60
:104FE00043B1226F0132013B02F00302C4E91C23EA
:104FF000002B6ED1694A137823F0040313700BB0B1
:10500000BDE8F08F654A137823F001031370012384
:10501000069300238DF81430CEE7012097E7CA8865
:10502000BAF80800BAF80A70C2F57F41FD310332C0
:1050300002443944AAF80A10AAF80820012086E799
:105040000123069305238DF81430B5E7751B04EB97
:1050500085050422EB88ADF8203000238DF814205C
:10506000ADF822300793A7E7751B04EB85050323F2
:10507000D5F80610EA688DF81430CDE907219BE7D2
:10508000751B04EB850501222B89A888E968ADF81A
:1050900020300023ADF8220007918DF814208DF800
:1050A000243089E7751B04EB85050222AB7D2E8930
:1050B000A888E968ADF82060A3F10603B3FA83F38A
:1050C0005B098DF82430ADF8220007918DF814208B
:1050D00072E70020FFF7FAFE91E7314F314A396855
:1050E00031484FF000090823CDF8009002F042FC4F
:1050F0002E4B28495B88D7F800C0B7F804E088F841
:1051000004901B01CA1801F8039053683B60022306
:10511000C2F804C0A2F808E0BB8000283FF46FAFDB
:105120001E49721B0B7814F8222023F001030B7028
:105130000E20531E0BE71A4F1B483968002301222B
:1051400002F04CFC02220023BA8088F80430E4E725
:10515000104F3B78022B00F0A3823B7C022B00F027
:105160008C820E4A137843F0020323F0010313707C
:1051700000234DE70A4B0E4A19680B4800230093A1
:10518000082302F0F7FB012388F80430C5E700BFCD
:10519000D033002048340020A8330020B83300204A
:1051A0006834002080370300642C0020BC330020CA
:1051B00088370300B8F80230BE4A02EB0312938925
:1051C000002B00F04382BC4BBC48196802229A8035
:1051D000052288F800200023012202F0FFFB0028AE
:1051E0003FF40DAF731B14F82320531E41F61D52DC
:1051F000904208BF0020AAE6D8F80420AE485388A1
:1052000087880168AD4801EB8701033300270097C9
:105210009BB203279B0088F8007002F0ABFBDEE72F
:1052200041F61D50721B04EB8202BAF80AC0D28804
:10523000BAF80870C2F57F41FD31033261443A4447
:10524000AAF80A10AAF80820D0E79D4B9D4AB3F8A7
:105250000080516899489C4A00230093042302F07F
:1052600089FB002840F0E981751B04EB850407EBFE
:10527000081706220123A275BB73C0E6771BBF0087
:1052800004EB070B8F4ADBF8183013608C490023BE
:10529000104653600393FFF7B1FD039B002800F015
:1052A000E881022008F10402009322448BF81600E2
:1052B00049460423814802F05DFB00283FF49FAE7D
:1052C000E25D0E20531EADE7771BBF00E31908F126
:1052D0000C021969794800290CBF4FF0010C4FF0FE
:1052E000030C83F816C000230093224409F108013F
:1052F000042302F03FFB00283FF481AEE0E7771B78
:10530000BF00E0190021C388026900914FF0010C31
:1053100080F816C009F10C019B00684802F02AFBD6
:1053200000283FF46CAECBE7771B032A4FEA8707D0
:1053300008F1080204EB07004FF00003224409F1D2
:1053400004010CBF4FF0050C4FF0060C009380F8E1
:1053500016C00423594802F00DFB00283FF44FAE5D
:10536000AEE7771BBF0008F10402E01900232244D6
:1053700049464FF0020CE9E74F4B544A19684F4831
:1053800000230093C8F80430072388F8003008236E
:1053900002F0F0FA23E7484AD8F8041093884988C5
:1053A00003330B440221938088F80010FFF7C8FCF8
:1053B00015E7B8F802303F4F1B011F4406200023B9
:1053C0007968434A009388F8000008233B4802F0BC
:1053D000D1FA04E70F23069334E698F80A304BB16C
:1053E000344A9389002188F80A101BB9927B002A5D
:1053F00040F0618198F80B304BB12E4B9A8B002115
:1054000088F80B101AB99B7F002B40F05381731B57
:10541000002014F8232088F80000531EA8F802008A
:10542000C8F8040093E5072B54D801A252F823F0E2
:1054300083540200D5540200D55402009753020051
:105440005D54020079530200795302005154020066
:10545000012388F8003098F80A30C0E7B8F8023025
:10546000144F154A1B01F9181068D1F804E0B2F87E
:1054700004C048600220C2F800E0A1F808C0908093
:105480009BE70C4AB8F808101378127CB2FA82F243
:105490005209B3FA83F35B09013188F80B2000202D
:1054A000012288F80A30A8F8081088F80C0088F85B
:1054B000002094E74834002068340020642C002049
:1054C000723400209C3300207C37030088370300AF
:1054D00080370300013B062B3FF67CAF01A252F858
:1054E00023F000BFDB530200AD530200F95102006C
:1054F000B5510200D5530200B353020079530200A4
:10550000DAF80C3006900DF1120105A8CDF81C90C8
:105510000593FFF773FC002839D1E25D0221531E89
:105520008AF804100A2012E5664B1B789B074AD5BF
:10553000DFF898E1BEF80480B8F1010F14D8624F8B
:105540000390534607EB08194FF6FF7C99F80020AB
:10555000002A41D008F1010291B201299046AEF82B
:10556000042009F11009F1D90822002157480CF054
:1055700050FF731B002014F82320531EE7E4514A08
:1055800013780E2123F001031370069141E506996B
:105590004F4A8B88AAF80630B1F800C04D48CDF8C4
:1055A00000900423AAF808C0BDF8128002F0E2F9C6
:1055B000002857D1444B03EB0813012102229973B1
:1055C0008AF804201BE50146082240480CF021FF20
:1055D000E25D0220531EBAE4D9F804A0DEF8001000
:1055E0000AF5805000293AD04A88033201EB820143
:1055F00081421ED20A6801321BD08A886245F3D0EC
:10560000B1F800B0BBF1000FEED0B3F806B0CEF8A1
:1056100000109345E6D1002300932D4A2D48042322
:1056200002F0A8F900283ED107EB08170123BB734D
:10563000E5E4039ACEF800208CE7731B9B00E11889
:10564000E25C06208875531E0E20EBE55168214868
:10565000012202F0C3F9042388F80030BFE50AF103
:105660000801C5E7E25D0221531E8AF804100E20EE
:105670006DE4E25D0A20531E69E44FF001084FEA31
:10568000081807EB08034FF000095968124ACDF8D3
:10569000009008230F4802F06DF907F808903CE5E8
:1056A0004FF00008EBE71C2303FB05F30E20E25C40
:1056B000531E4CE40123A8F80230FFF741FB8EE5AE
:1056C0000F20AFE5B83300204834002074340020A8
:1056D0007C370300642C0020803703002DE9F04F55
:1056E000B14CD0F80490256FEE00A6EB05084FEA08
:1056F00088088BB014F80820531E052B67D8DFE804
:1057000003F05739391F1F03B9F1000F40F0A5808E
:10571000DFF8B08298F80C2098F80030002A00F0EA
:105720008E82013B88F80C90062B00F25F82DFE846
:1057300013F0600249026F014D015D024C022F021D
:10574000B9F1000F76D1771BBF0004EB070A9AF876
:105750000420012A00F0F582C0F0DE82022A0CBF8C
:1057600000200F200690052B33D8DFE803F05F966A
:10577000A88A7C78711B04EB81018C4FB1F814A0CE
:1057800007EB0A1AB9F1000F56D1887DBAF80890D4
:10579000DAF8041001EB8909062800F29F83DFE89C
:1057A00010F0EC01CF019F01BA01790160014B01BA
:1057B000B9F1000F33D1A04498F80430032B00F264
:1057C000EC82DFE813F0E400D200C50097000F235D
:1057D0000693774D05F1100655F8043B05A803B173
:1057E0009847B542F8D1206FC0EBC00004EB8000B1
:1057F0001C2200210CF00DFE636F43B1226F0132B9
:10580000013B02F00302C4E91C23002B6ED1694A5C
:10581000137823F0040313700BB0BDE8F08F654AD2
:10582000137823F0010313700123069300238DF8EE
:105830001430CEE7012095E7CA88BAF80800BAF814
:105840000A70C2F57F41FD31033202443944AAF89F
:105850000A10AAF80820012084E7012306930523F3
:105860008DF81430B5E7751B04EB85050422EB8831
:10587000ADF8203000238DF81420ADF822300793C6
:10588000A7E7751B04EB85050323D5F80610EA6826
:105890008DF81430CDE907219BE7751B04EB8505D6
:1058A00001222B89A888E968ADF820300023ADF8E3
:1058B000220007918DF814208DF8243089E7751B9C
:1058C00004EB85050222AB7D2E89A888E968ADF836
:1058D0002060A3F10603B3FA83F35B098DF824304B
:1058E000ADF8220007918DF8142072E70020FFF731
:1058F000EDFA91E7304F314A396831484FF00009ED
:105900000823CDF8009002F035F82E4B27495B882C
:10591000D7F800C0B7F804E088F804901B01CA1853
:1059200001F8039053683B600223C2F804C0A2F858
:1059300008E0BB8000283FF46FAF1E49721B0B7854
:1059400014F8222023F001030B700E20531E09E7E8
:10595000194F1B4839680023012202F03FF8022248
:105960000023BA8088F80430E4E7104F3B78022B1C
:1059700000F0A4823B7C022B00F08D820D4A13784C
:1059800043F0020323F00103137000234DE70A4B99
:105990000D4A19680A4800230093082301F0EAFF22
:1059A000012388F80430C5E7D033002048340020B4
:1059B000A8330020B833002068340020803703006B
:1059C000642C0020BC33002088370300B8F8023074
:1059D000BE4A02EB03129389002B00F04582BC4BB8
:1059E000BC48196802229A80052288F8002000230A
:1059F000012201F0F3FF00283FF40EAF731B14F8EF
:105A00002320531E41F61D52904208BF0020A9E6F4
:105A1000D8F80420AE48538887880168AD4801EB68
:105A200087010333002700979BB203279B0088F868
:105A3000007001F09FFFDEE741F61D50721B04EB82
:105A40008202BAF80AC0D288BAF80870C2F57F415B
:105A5000FD31033261443A44AAF80A10AAF808203A
:105A6000D0E79D4B9D4AB3F80080516899489C4A05
:105A700000230093042301F07DFF002840F0EB8118
:105A8000751B04EB850407EB081706220123A2759A
:105A9000BB73C1E6771BBF0004EB070B8F4ADBF833
:105AA000183013608C490023104653600393FFF7AE
:105AB000A5F9039B002800F0EA81022008F1040206
:105AC000009322448BF8160049460423814801F0D4
:105AD00051FF00283FF4A0AEE25D0E20531EADE75B
:105AE000771BBF00E31908F10C02196979480029F6
:105AF0000CBF4FF0010C4FF0030C83F816C00023CD
:105B00000093224409F10801042301F033FF002827
:105B10003FF482AEE0E7771BBF00E0190021C388A5
:105B2000026900914FF0010C80F816C009F10C01D8
:105B30009B00684801F01EFF00283FF46DAECBE7E4
:105B4000771B032A4FEA870708F1080204EB0700D6
:105B50004FF00003224409F104010CBF4FF0050C83
:105B60004FF0060C009380F816C00423594801F04A
:105B700001FF00283FF450AEAEE7771BBF0008F1ED
:105B80000402E0190023224449464FF0020CE9E7E1
:105B90004F4B544A19684F4800230093C8F804300B
:105BA000072388F80030082301F0E4FE23E7484A81
:105BB000D8F804109388498803330B44022193805A
:105BC00088F80010FFF7BCF815E7B8F802303F4F2F
:105BD0001B011F44062000237968434A009388F87C
:105BE000000008233B4801F0C5FE04E70F2306939D
:105BF00035E698F80A304BB1344A9389002188F889
:105C00000A101BB9927B002A40F0638198F80B3090
:105C10004BB12E4B9A8B002188F80B101AB99B7F41
:105C2000002B40F05581731B002014F8232088F8C6
:105C30000000531EA8F80200C8F8040092E5072BE4
:105C400054D801A252F823F09B5C0200ED5C0200E4
:105C5000ED5C0200AF5B0200755C0200915B02002C
:105C6000915B0200695C0200012388F8003098F81B
:105C70000A30C0E7B8F80230144F154A1B01F91872
:105C80001068D1F804E0B2F804C048600220C2F8FD
:105C900000E0A1F808C090809BE70C4AB8F8081013
:105CA0001378127CB2FA82F25209B3FA83F35B09D9
:105CB000013188F80B200020012288F80A30A8F86A
:105CC000081088F80C0088F8002094E74834002079
:105CD00068340020642C0020723400209C330020A3
:105CE0007C3703008837030080370300013B062B15
:105CF0003FF67CAF01A252F823F000BFF35B020035
:105D0000C55B0200115A0200CD590200ED5B020092
:105D1000CB5B0200915B0200DAF80C30CDF81890F2
:105D20000DF1120105A8CDF81C900593FFF766F858
:105D300000283AD1E25D0221531E8AF804100A209D
:105D400010E5674B1B789B074BD5DFF89CE1BEF84D
:105D50000480B8F1010F15D8624FCDF80C9053466E
:105D600007EB08194FF6FF7C99F80020002A41D074
:105D700008F1010291B201299046AEF8042009F120
:105D80001009F1D90822002157480CF042FB731B7F
:105D9000002014F82320531EE4E4514A13780E2106
:105DA00023F001031370069140E506994F4A8B8852
:105DB000AAF80630B1F800C04D48CDF80090042391
:105DC000AAF808C0BDF8128001F0D4FD002857D110
:105DD000444B03EB08130121022299738AF8042033
:105DE0001AE50822494640480CF013FBE25D022008
:105DF000531EB7E4D9F804A0DEF800100AF580506D
:105E000000293AD04A88033201EB820181421ED236
:105E10000A6801321BD08A886245F3D0B1F800B01D
:105E2000BBF1000FEED0B3F806B0CEF800109345EA
:105E3000E6D1002300932D4A2D48042301F09AFD5A
:105E400000283ED107EB08170123BB73E4E4039A53
:105E5000CEF800208CE7731B9B00E118E25C062063
:105E60008875531E0E20E9E551682148012201F092
:105E7000B5FD042388F80030BDE50AF10801C5E747
:105E8000E25D0221531E8AF804100E206AE4E25DEE
:105E90000A20531E66E44FF001084FEA081807EB8A
:105EA00008034FF000095968124ACDF80090082302
:105EB0000F4801F05FFD07F808903BE54FF0000840
:105EC000EBE71C2303FB05F30E20E25C531E49E4C1
:105ED0000123A8F80230FEF733FF8CE50F20ADE573
:105EE000B833002048340020743400207C3703008D
:105EF000642C002080370300074A1378042B09D054
:105F000010B4591C054C117044F8230000205DF8B2
:105F1000044B70470C20704770340020A8330020D9
:105F20002DE9F04FA34D2A788DB000239607CDE9D7
:105F30000733CDE909330B930ED59F4C04F11005BF
:105F400054F8043B07A803B19847A542F8D10024B0
:105F500020460DB0BDE8F08FD407F8D442F001021E
:105F60004FF010232A704FF080525B69116952691B
:105F7000924E581C08BF02FB01F333619049A3F510
:105F8000405330460022F36001F0ECFC0446002848
:105F9000DED18C4AF368D2F800A0DFF83CE2DFF8EB
:105FA0003CC2019003F5405B0390064602901A68DC
:105FB00085498A4243D15A6884498A4200F0B480B4
:105FC00001318A423BD1039A5AB107010EEB070116
:105FD00002240130DCF800200EF8074080B24A604D
:105FE0000C819968CCF800300224013103F580520D
:105FF000ACF8044003F1080300F0D6804FF6FF77B9
:1060000002E01968013114D09988B94207D0198883
:1060100029B199688A4502D28A460121019159889D
:1060200003310C4403EB8103A4B29A42ACF8044060
:10603000E7D8022C14BF082304231E4311E003F504
:106040008052194601E08A423DD00C68013401F1CA
:106050000401F8D003014FF0030101300EF80310E2
:1060600080B293451346A2D1DDE90134002B40F004
:106070009D80F6B20B2E09D8DFE806F03A063A0604
:10608000083C453C08423F4200230593504A516F6B
:1060900003290DD8136F0B4403F00303C3EBC303B1
:1060A0009B00D0180126D6540131059B037151671E
:1060B0002B7813F004007FF44AAF43F004032B70F5
:1060C000FEF704FF44E7DCF80010002964D0414CDF
:1060D00001010EEB01076080022400F101080EF8B7
:1060E00001401FFA88F07B603C8146F00106B8E76A
:1060F0000B242DE701230593C8E702230593C5E789
:1061000003230593C2E72B782B4C43F0020323F0C3
:1061100001032B7004F1100554F8043B07A803B1E8
:106120009847A542F8D112E702010EEB02074FF0A3
:1061300000080EF8028002217B6039819C6804927D
:10614000013403F5805203F108031CD04FF6FF79A8
:1061500013E01C88A4B19C68544502D9A2460124CE
:1061600001945C880334214403EB840389B29A428E
:10617000398108D91C68013405D09C884C45E8D188
:106180004FF00108EDE7049B7344013083F80E8063
:1061900080B246F0020664E70221CCF80030012309
:1061A000ACF804100393A0E7042346E7054BC3F8BB
:1061B00000A05EE7B8330020A8330020642C002044
:1061C000B0370300CC330020DEC0ADDEFE011EF18F
:1061D000D0330020BC330020483400206834002035
:1061E000D8B1D1B130B583B00C460DF106010546EA
:1061F000FEF704FE98B1BDF806200A4B686803EB71
:10620000021301219A890A449A8120606B68002058
:106210000C336360A97203B030BD052070470A20BB
:1062200003B030BD48340020D0B110B582B00DF1BC
:1062300006010446FEF7E2FD78B1BDF806200B4BDF
:1062400003EB02139A896AB1A17A59B10021013A8C
:1062500008469A81A17202B010BD0A2002B010BD9A
:1062600005207047062002B010BD00BF4834002052
:106270001D4B1B789B0718D5D0B1CB1C9BB240F2AD
:10628000FD32934222D870B4184A16783EB9558927
:1062900014892C441C44A4B2B4F5806F19D3147C27
:1062A0004CB10723184670BC70470223184670474C
:1062B000052318467047558B148B2C441C44A4B2FC
:1062C000B4F5806FEDD20126344603E00923184669
:1062D0007047344602EB04122B4453810680418000
:1062E0000023184670BC7047B833002048340020A3
:1062F000124B1A78930718D50346D0B100880228AC
:1063000015D810B40E495A8801EB00114889841A37
:10631000032C10D4C2F57F42FD32024400244A818E
:1063200020461C605DF8044B704702207047042033
:106330007047052070470420F4E700BFB833002001
:10634000483400202DE9F84F4E4A13789D0732D586
:10635000002935D00D884FF6FF74A54228D04C880F
:1063600034B34C68A4072ED1B1F808C00CF1030473
:10637000A4B240F2FD35AC4220D8434D95F80080E0
:10638000B8F1000F07D16E892F8937442744BFB277
:10639000B7F5806F1AD32E7C3EB96E8B2F8B3744A6
:1063A0002744BFB2B7F5806F67D30720BDE8F88FE9
:1063B0000420BDE8F88F0220BDE8F88F0920F8E737
:1063C0000520BDE8F88F0320BDE8F88FC246DFF84E
:1063D000C090DFF8C0E0D9F80070344405EB0A152E
:1063E000DEF87460A4B26C810137032ED1F804A0EA
:1063F000C9F8007031D8DEF870400D8849883444FF
:1064000004F00304C4EBC404A4000EEB04094FF031
:10641000020B0EF804B001364FF0000BA9F804107F
:10642000A9F806C0A9F80850C9E9037AA9F81480A8
:10643000C9F818B0A9F80AB089F816B0CEF8746097
:1064400030B1C0E9007B114980F80AB009890181A7
:1064500013F0040409D00020ABE7CCF57F4C0CF11D
:10646000FD0C64446C810820A3E743F0040320463C
:106470001370FEF72BFD20469BE74FF00108C24644
:10648000A5E700BFB833002048340020BC3300200B
:10649000CC330020D0330020002A5DD02DE9F04F0E
:1064A0003D4C23789D0783B052D500295CD00D88E0
:1064B0004FF6FF76B54253D04E88002E50D0496833
:1064C00011F0030E4AD1DFF8DCB0DFF8DCC0DBF8F6
:1064D0000070DCF87490B2F800A0B2F80280B9F154
:1064E000030F07F101020192CBF800203ED8DCF83F
:1064F00070204A4402F00302C2EBC20292000CEB8D
:10650000020B09F101074FF002090CF80290ABF8F9
:106510000850019DABF804600022ABF80680ABF890
:106520000AE0CBE90351ABF814A08BF816E0CBF8E6
:106530001820CCF8747030B1C0E9005E174A80F8BA
:106540000AE01289028113F004051DD0002000E04A
:10655000022003B0BDE8F08F052070470320F8E764
:10656000042003B0BDE8F08F0520F2E70C4B03EBED
:106570000A1AC8F57F48BAF80A3008F1FD089844AD
:10658000AAF80A800820E4E743F0040328462370B1
:10659000FEF79CFC2846DCE7B8330020BC33002023
:1065A00048340020CC330020D033002000283CD0D9
:1065B000544A137813F0020F35D0002935D02DE955
:1065C000F04F0D884FF6FF74A54283B031D04C8850
:1065D0007CB34C68A4072AD10D89EC1CA4B240F20C
:1065E000FD36B44229D8DFF824E19EF800704FB997
:1065F000BEF80AC0BEF8086066442644B6B2B6F5D6
:10660000806F1CD39EF810604EB9BEF81AC0BEF859
:10661000186066442644B6B2B6F5806F6DD3072085
:1066200003B0BDE8F08F02207047052070470320BB
:10663000F6E7042003B0BDE8F08F0920F0E70197EA
:10664000B946DFF8CC80304FD8F80060D7F874B086
:1066500064440EEB091EA4B2AEF80A400136BBF149
:10666000030FD1F804C0C8F8006036D83C6FB1F809
:1066700002A0B1F80090D0F80080DFF898E00BEBB2
:10668000040101F00301C1EBC10189000BF1010418
:106690004FF0030B07F801B039444FF0040BA1F899
:1066A00004A0CD804FF0000A019DA1F80890C1E937
:1066B000036C8D82C1F8188081F816B0A1F80AA089
:1066C0007C67C0E9006A13EA0B04BEF8081080F882
:1066D0000AA0018109D05046A2E7C5F57F45FD35E6
:1066E0002C44AEF80A4008209AE743EA0B03204600
:1066F0001370FEF7EBFB204692E701260196B146A8
:106700009FE700BFB8330020D0330020483400207A
:10671000CC330020BC330020F8B5174D2A789307FE
:106720001BD54FF6FF73984223D014494C6F032CAE
:1067300015D80B6F234403F00303C3EBC3039B0083
:10674000CE180527CF5401340123F08033714C67F4
:1067500012F0040405D00020F8BD0220F8BD082086
:10676000F8BD42F0040220462A70FEF7AFFB204637
:10677000F8BD0420F8BD00BFB8330020D03300209E
:106780002DE9F04FB24D297888078BB020D5B14C58
:10679000626F032A18D8236FDFF8D492134403F0F2
:1067A0000303C3EBC303062004F8230099F8003069
:1067B0000132626713B1012289F80C204A070BD518
:1067C00000200BB0BDE8F08F08200BB0BDE8F08FC3
:1067D00002200BB0BDE8F08F266FF700BA1B9200C5
:1067E00041F0040C14F802E085F800C00EF1FF300F
:1067F000052800F25282DFE800F0333E3E1818030D
:1068000099F80C20002A00F070820022013B89F8E0
:106810000C20062B00F24182DFE813F041022A022D
:106820004A012C013F022D021002A7EB060A04EBDD
:106830008A0A9AF80430012B00F0D982C0F0C48291
:10684000022B40F02A820020BB1B069014F8233054
:10685000013B052B2FD8DFE803F06C877060522BCB
:1068600004EB020898F80430032B00F2BA80DFE84A
:1068700003F0CEDBBE8DBB1B04EB8303DFF8EC81A2
:10688000B3F814909B7D4FEA091908EB0901B1F8A0
:1068900008A0496801EB8A0A062B00F25483DFE85E
:1068A00013F0C301A6018C0177014F0135011F01CF
:1068B00005238DF81430684E06F1100756F8043B96
:1068C00005A803B19847BE42F8D1206FC0EBC000C5
:1068D00004EB80001C2200210BF09BFD636F4BB189
:1068E000226F0132013B02F00302C4E91C23002B9A
:1068F00040F0F7812B7823F004032B7060E7BB1B7B
:1069000004EB83030422DB88ADF8203000238DF8EC
:106910001420ADF822300793CDE7BB1B04EB8303B3
:106920000322D3F80610DB688DF81420CDE9073177
:10693000C1E700238DF81430BDE7BB1B04EB8303D4
:1069400002219A7D1889ADF82000A2F10602B2FA60
:1069500082F29888DB68ADF8220052098DF8242075
:1069600007938DF81410A6E7BB1B04EB83030122E9
:106970001E899888D968ADF820600023ADF8220000
:1069800007918DF814208DF8243094E7DFF8D4A017
:10699000324ADAF8001032484FF0000B0823CDF8E5
:1069A00000B000F0E7FFB9F80230DFF8C0E0DAF835
:1069B0000010BAF804C088F804B01B010EEB030203
:1069C0004FF002080EF803B05368CAF80030516067
:1069D000A2F808C0AAF8048000283FF4F1AE95F8A8
:1069E00000C02CF0010C85F800C00E202CE7DFF869
:1069F00074901B48D9F800100023012200F0EEFF2C
:106A000002220023A9F8042088F80430E4E7154B9B
:106A1000154A1968124800230093082300F0AAFFC2
:106A2000012388F80430D7E7DFF8408098F8003079
:106A3000022B00F07D8298F81030022B00F0658266
:106A400041F0060323F001032B700020FCE600BF99
:106A5000B8330020D0330020A83300208037030053
:106A6000642C00206834002088370300483400205C
:106A7000BC330020B9F80230C04A02EB03129389FC
:106A8000002B00F02A82BE4BBE48196802229A8071
:106A9000052289F800200023012200F09FFF002832
:106AA0003FF48EAE41F61D53984208BF0020CBE65E
:106AB000D9F80420B2485388D0F800C08188B14882
:106AC0000CEB810103334FF0000CCDF800C09BB2FA
:106AD0004FF0030C9B0089F800C000F04BFFDEE78D
:106AE00041F61D50BB1B04EB8303C844DB88B8F898
:106AF00008C0B8F80A10C3F57F42FD32033363447F
:106B00000A44A8F80830A8F80A20CBE79E4B9F4A11
:106B1000B3F800A051689B489D4A002300930423CA
:106B200000F028FF002840F0E181BE1B04EB860442
:106B300008EB0A1806220123A27588F80E3040E6F9
:106B4000A7EB060B04EB8B0BDFF840C2DBF8183029
:106B5000CCF800308C49039200236046CCF8043016
:106B60000293FEF74BF9DDE90232002800F03D8187
:106B700002200432009322448BF81600514604236D
:106B8000804800F0F7FE00283FF41AAE0E20A9E777
:106B9000B81B04EB80000021C388026900914FF00C
:106BA000010C80F816C00AF10C019B00754800F03A
:106BB000E1FE00283FF404AEE8E7BB1B04EB8303CF
:106BC0000C3219696F4800290CBF4FF0010C4FF0CF
:106BD000030C83F816C00023009322440AF1080135
:106BE000042300F0C7FE00283FF4EAADCEE7BEF173
:106BF000030FA7EB060002F1080204EB80004FF040
:106C0000000322440AF1040114BF4FF0060C4FF0B8
:106C1000050C009380F816C004235A4800F0AAFE21
:106C200000283FF4CDADB1E7B81B043204EB80007F
:106C30000023224451464FF0020CEAE7504B554ADC
:106C40001968504800230093C9F80430072389F8D5
:106C50000030082300F08EFE21E7494AD9F80410DD
:106C60009388498803330B440221938089F80010EC
:106C7000FEF766F813E7B9F80230DFF800811B0170
:106C800043440022062059680092082389F8000036
:106C9000414A3C4800F06EFE01E70F20D4E599F828
:106CA0000A304BB1354A9389002189F80A101BB983
:106CB000927B002A40F0428199F80B304BB12F4B68
:106CC0009A8B002189F80B101AB99B7F002B40F09A
:106CD0003481002089F80000A9F80200C9F80400F6
:106CE000B2E50020FEF7F2F86AE5072B56D801A2BC
:106CF00052F823F04B6D02009D6D02009D6D020065
:106D00005B6C0200216D02003D6C02003D6C0200D4
:106D1000156D0200012389F8003099F80A30C0E7A8
:106D2000B9F80230DFF85480154A1B0108EB030163
:106D30001068D1F804E0B2F804C048600220C2F83C
:106D400000E0A1F808C090809AE70C4AB9F8081052
:106D50001378127CB2FA82F25209B3FA83F35B0918
:106D6000013189F80B200020012289F80A30A9F8A6
:106D7000081089F80C0089F8002092E748340020B8
:106D800068340020642C0020723400209C330020E2
:106D90007C3703008837030080370300013B062B54
:106DA0003FF67BAF01A252F823F000BF9F6C0200B8
:106DB000716C0200B16A0200756A02009B6C0200ED
:106DC000776C02003D6C0200DAF80C304FF00008DE
:106DD0000DF1120105A8CDF81C80CDE90538FEF7AC
:106DE0000DF828BB02238AF804300A202CE5DFF8CE
:106DF0005CC1BCF80490B9F1010F12D8DFF85881DA
:106E00004FF6FF7208EB091E9EF8003063B309F1DC
:106E1000010399B201299946ACF804300EF1100E25
:106E2000F2D90822002149480BF0F3FA00200BE5C3
:106E30000699474A8B88AAF80630B1F800C0454841
:106E4000CDF800800423AAF808C0BDF8128000F035
:106E500091FD002854D1404B03EB0813012102227D
:106E600099738AF80420ACE4DEF80430DCF80010F2
:106E7000029303F5805000293ED04B88033301EB89
:106E80008301884225D90B68013322D08B88934235
:106E900019D0B1F800B0BBF1000F14D0BAF806B0A9
:106EA000CCF800109B45E6D100230093284A2948DE
:106EB000042300F05FFD00283DD108EB09180123F1
:106EC00088F80E307DE44B88033301EB8301814267
:106ED000D9D30023CCF8003099E751681D4801222E
:106EE00000F07CFD042389F80030D8E5BB1B04EBDF
:106EF000830306229A7549E6029B03F10801C0E765
:106F000002238AF804300E209EE44FF001094FEA74
:106F1000091908EB09034FF0000A59680F4ACDF828
:106F200000A008230B4800F025FD08F809A053E550
:106F30004FF00009EBE70E2086E40123A9F80230A8
:106F4000FDF7FEFEABE50F20CCE500BF743400205A
:106F50007C370300642C0020483400208037030075
:106F60002DE9F0412D4C2478A40754D5002A37D0C0
:106F7000002B35D0B3F804E0BEF1010F46D8284C01
:106F80004FF6FF7704EB0E1C4FF000089CF8004012
:106F9000002C30D11C68DCF80460002C38D06588E7
:106FA000033504EB850406F58056A64221D92568F1
:106FB00001351ED0A588BD4215D025889DB11C6025
:106FC000A5888542E7D125888D42E4D1A16811606A
:106FD0001968144B51601B8913810020BDE8F081B2
:106FE0000520BDE8F0816588033504EB8504A642E1
:106FF000DDD8C3F800800EF1010E1FFA8EF4022CCA
:107000009C800CF1100C4FF0010EBFD10A20E5E777
:1070100006F10804C7E70220BDE8F081B83300207C
:1070200048340020BC3300202A4B1B789B0749D5ED
:10703000E1B1DAB1B2F804C0BCF1010F47D8F0B544
:10704000254F4FF6FF7607EB0C174FF0000E3B78FD
:1070500073B10CF1010C1FFA8CF3022B938007F132
:1070600010074FF0010CF2D10A20F0BD0520704747
:10707000136805E01C889CB113601C88844218D0FA
:107080007D680BB35C88033403EB840305F58055FE
:107090009D420BD91C68013408D09C88B442E9D1C8
:1070A0005C88033403EB84039D42F3D8C2F800E00C
:1070B000CFE79B680B601268084B4A601B890B8105
:1070C0000020F0BD0220704705F10803DEE70A202A
:1070D000704700BFB833002048340020BC33002084
:1070E000294B1B789B0748D5E1B1DAB1B2F804C04F
:1070F000BCF1010F46D8F0B5244F4FF6FF7607EBF1
:107100000C174FF0000E3B7873B10CF1010C1FFA15
:107110008CF3022B938007F110074FF0010CF2D192
:107120000A20F0BD0520704713687D683BB35C887A
:10713000033403EB840305F580559D421AD91C687E
:10714000013417D09C88B4420ED01C8864B11360FF
:107150009C888442E9D19B680B6012680C4B4A60A2
:107160001B890B810020F0BD5C88033403EB840392
:107170009D42E4D8C2F800E0C7E70220704705F15D
:107180000803D8E70A207047B833002048340020AD
:10719000BC33002020B119B103680B600020704798
:1071A00005207047B8B130B4D0E90112521A046812
:1071B000D2B2531E2160DBB242B101680A685C1E84
:1071C000551C0D601370E3B2FF2BF6D1036800204D
:1071D000187130BC70470E20704700BFF0B583B007
:1071E00002AB002503F8015D04461846FDF76AFD71
:1071F000D4E900311A688A4210D9511E19602168F9
:10720000A3680F6812F8015C0A79268AE068DB1B24
:10721000DBB29A4206FB050538BF0B719DF80700EB
:10722000FDF776FD284603B0F0BD00BF30B583B052
:1072300002AB002203F8012D054618460C46FDF767
:1072400041FD2A681368591C1160E9682A8A641A8A
:10725000B4FBF2F41C709DF80700FDF759FD03B074
:1072600030BD00BF826842B110B504464369016871
:10727000006998470023A36010BD70470EB400B5A5
:1072800082B0039929B102AA04AB42F8043D00F090
:107290008BF802B05DF804EB03B070472DE9F84FAE
:1072A00088469045174605461E46DDE90AB175D366
:1072B00043464FF00109B3FBF7F39F4209F101097F
:1072C000F9D9B14538BFB14611F0010AAA6802D117
:1072D000BBF1000F43D1012402E0013E07FB04F49F
:1072E000012EFAD8B8FBF4F18F42F7D92D4E05E004
:1072F000B4FBF7F4A4B1B8FBF4F1AA68705C531CBA
:10730000AB602B689854D5E901329A4204FB11888E
:10731000EED32846FFF7A6FFB4FBF7F4002CEAD122
:10732000BAF1000F15D0BBF1000F12D0CB4510D928
:107330002024AB682A68591CA960D454D5E90132CD
:107340009A420BF1FF3B06D2BBF1000F01D0CB45B7
:10735000EFD1BDE8F88F2846FFF784FFF4E78B07ED
:1073600017D42024CB45B6D92B68511CA9609C5456
:10737000D5E901329A420BF1FF3B05D2BBF1000F78
:10738000A9D0CB45F0D1A6E72846FFF76BFFAA6846
:10739000F4E7002E0CBF30242024E3E74FF001096E
:1073A0008FE700BF98370300002900F0F4812DE932
:1073B000F04F054685B092460C460B78DFF8A0B535
:1073C00001E0237893B1013483B1252B15D0AA684D
:1073D0002968501CA8608B54D5E901329A42F0D339
:1073E0002846FFF73FFF2378002BECD12B7B002BA7
:1073F00040F0148105B0BDE8F08F2146002711F858
:10740000012B2D2A00F0E180302A00F0E2802B2AA7
:1074100000F0D2802A2A00F0E080A2F13006F3B218
:10742000092B03D9B8E1A3F130060146084606EB63
:10743000860310F8012BA2F13004092C02EB430360
:10744000F1D92E2A00F0D5800023013101E011F896
:10745000012B02F0FB0068280C46F8D0253A532A8D
:10746000AFD801A151F822F029760200C3730200BF
:10747000C3730200C3730200C3730200C37302002C
:10748000C3730200C3730200C3730200C37302001C
:10749000C3730200C3730200C3730200C37302000C
:1074A000C3730200C3730200C3730200C3730200FC
:1074B000C3730200C3730200C3730200C3730200EC
:1074C000C3730200C3730200C3730200C3730200DC
:1074D000C3730200C3730200C3730200C3730200CC
:1074E000C3730200C3730200C3730200C3730200BC
:1074F000C3730200C3730200C3730200C3730200AC
:10750000C3730200C3730200C3730200C37302009B
:10751000C3730200C3730200C3730200C37302008B
:10752000C3730200C3730200C3730200C37302007B
:10753000C373020043760200C3730200C3730200E8
:10754000C3730200C3730200C3730200C37302005B
:10755000C3730200C3730200C3730200C37302004B
:107560005D7602007F760200C3730200C3730200DF
:10757000C3730200C37302007F760200C37302006C
:10758000C3730200C3730200C3730200C37302001B
:10759000C3730200CF760200C3730200C3730200FC
:1075A00043770200C37302007D770200C3730200B9
:1075B000C37302004376020047F004070C462146DD
:1075C00011F8012B2D2A7FF41FAF47F001070C465D
:1075D000F5E747F002070C46F1E7DAF800301A1D2C
:1075E000CAF8002062781E682E2A04F102007FF497
:1075F0002BAF4A78A2F13003092B00F2508100230F
:1076000003EB830302EB430310F8012FA2F13001D7
:107610000929A3F13003F3D9014616E7284605B03E
:10762000BDE8F04FFFF71EBEAB682A68591CA96081
:107630004FF02501D154D5E901329A42FFF4C1AE91
:10764000CEE6DAF80020111DCAF8001011682846AD
:10765000CDE900671022FFF721FEB2E6DAF800203C
:10766000131DCAF80030AB6829681278581CA8604E
:10767000CA54D5E901329A42FFF4A3AEB0E6DAF873
:107680000020111DCAF80010D2F8008088EAE872C4
:10769000A2EBE872092A4FF0010107DDAF48A0FB19
:1076A0000202D208092A01F10101F7DC994238BF30
:1076B0001946894607F00202002E71D12AB1002B2B
:1076C00000F04781FA0700F18D8000268AE0DAF8A1
:1076D0000020131DCAF80030AB6829681768581CD1
:1076E0003022A860CA54D5E90123934280F0288152
:1076F0002A68581C7821A860D154D5E90123934207
:1077000080F019810F2F03D93A4612090F2AFCD8AD
:107710004FF0805603E036093FF453AEAB6829685A
:10772000B7FBF6F2581CA8601BF80200C854D5E954
:107730000131994206FB1277EDD32846FFF792FDFF
:10774000E9E7DAF800301A1DCAF80020D3F8008003
:10775000FB077ED54746A7EB080917F8013B002B2E
:107760005DD0AA682968501CA8608B54D5E9013205
:107770009A42F0D32846FFF775FDECE7DAF80020CF
:10778000111DCAF8001011682846CDE900670A22C9
:10779000FFF784FD15E6704708460026214650E6AF
:1077A000B8F1000F01DB780700D5013E02B1CBB183
:1077B000F90717D4002E88D0B14513D220220393A5
:1077C000A9682B68481CA8605A54D5E90131994230
:1077D00006F1FF365DD2002E00F0BD80B145EFD13D
:1077E000039B4E46B8F1000FC0F292807A070AD58B
:1077F000A9684A1CAA602A682B205054D5E90121A7
:10780000914280F0928007F00302022A5FD0CDE916
:10781000006741460A222846FFF740FDD1E54E4564
:107820007FF6CFAD202705E04E453FF4CAAD002ED0
:107830003FF4C7ADAB682A68591CA960D754D5E995
:1078400001329A4206F1FF36EED32846FFF70AFDD1
:10785000EAE7B8F1000F24D040460AF0FBFD0746E6
:10786000BE4220D9FEB14FF0200902E0BE421AD03C
:10787000CEB1AB682A68591CA96002F80390D5E91B
:1078800001329A4206F1FF36F0D32846FFF7EAFCB0
:10789000ECE728460292FFF7E5FC029A9BE70146D7
:1078A000D2E54746DCE708F1FF3818F8013F002B26
:1078B0003FF487ADAA682968501CA8608B54D5E9AD
:1078C00001329A42F1D32846FFF7CCFCEDE7002BBA
:1078D0009DD1002E3BD0B14599D2029323464C4610
:1078E0009946AA682B68501C4FF03001A860995443
:1078F000D5E901329A4206F1FF3605D22EB3B442E1
:10790000EFD1029B4C4682E72846FFF7ABFCF5E738
:10791000A9684A1CAA602A682D205054D5E9012183
:107920009142C8F10008FFF46EAF28460293FFF7BA
:1079300099FC029B67E72846FFF794FCAB68E1E6F9
:107940002846FFF78FFCAB68D2E6029B4C46002628
:107950005DE71E4646E7039BB7E600BFCDCCCCCC27
:107960009837030020B119B101600B681146184720
:107970000E20704750B32DE9F0414AB3D0F800E033
:10798000BEF1000F27D01D4673B14768D7F80480B9
:10799000B3FBF8F708FB173737B942EA0104A4072D
:1079A00005D01020BDE8F0810920BDE8F081C46851
:1079B000A142F6D301F1FF3C04696544A542F0D829
:1079C000DEF80C40A446BDE8F04160470E20704749
:1079D0000E20BDE8F0810820BDE8F081E0B1F0B5EF
:1079E0000668DEB1A2B14768D7F800E00EF1FF37B4
:1079F0000F420FD1C768B9420CD34D1E046902FB78
:107A00000E55A54206D83469A446BDE8F04060474B
:107A10000920F0BD1020F0BD0E2070470820F0BDF9
:107A200018B103680BB15B69184770B50D4C0E4D6A
:107A30000E4B2D1BA3FB05352D0910D005EB85053D
:107A400004EB850501E0AC4209D0236820461434DC
:107A5000002BF8D05B6998470028F4D070BD002057
:107A600070BD00BF642C0020782C0020CDCCCCCC85
:107A700029DF704728DF704700207047024B586F9E
:107A8000003018BF012070478034002008B5104630
:107A90001A460AF09AFC002008BD00BF38B50B4D0D
:107AA0000B4B43600422002128460AF0B2FC0AF086
:107AB0008FFA084CE8700422204600210AF0A9FC45
:107AC000054B00201860C4E91C0038BD7C34002040
:107AD000A837030080340020F8340020012809D89A
:107AE000054B1A780121997012B9587848407047AF
:107AF00000207047012070477C340020F0B5794C9D
:107B000023788DB07BB1784D296F0228C1EBC1017C
:107B100005EB810134D003282BD0A37853B10AF0B0
:107B200047FA0DB0F0BD6278002AF6D06370A378F2
:107B3000002BF4D16C4D6B6F002BF2D02E6FF70041
:107B4000BB1B05EB830301211A792170002A35D074
:107B50008A4246D1D3E903031844FFF78BFF00287C
:107B600000F0A08011283CD1002201232270637014
:107B7000D7E75E4E33680133082B56D83360CCE725
:107B80005A4A0B7900201060002B7DD0012BC4D104
:107B9000D1E90432013393420B61BED11C2205A806
:107BA0000AF013FCD5E91C320133013A042BC5E974
:107BB0001C3200F092800025257046E0D3E90520B4
:107BC000121AB2F5805FD3E9031328BF4FF4805235
:107BD0009208012A014438BF01221844FFF748FFE8
:107BE000BDE7BB1B9B00EC18EB589B68002B98D0A3
:107BF000142205A800210AF00CFCA268237909923E
:107C000003220692002B5ED0012B07D1E368626944
:107C100008921B03022207938DF81420BE1B05A8AF
:107C200055F826309B6898477BE71C22002705A85B
:107C300037600AF0CAFBD5E91C320133013A042B44
:107C4000C5E91C3247D027700D25059B9B68002B8A
:107C50003FF463AF1422684600210AF0DAFB9DF876
:107C60001830079A019504922BB3012B07D1089B7A
:107C70000A9A03921B03022202938DF80020059BAF
:107C800068469B68984748E7D1E90523D01AB0F5C4
:107C9000805F94BF1B1803F580539A428B617FF479
:107CA0003CAF7BE7E378002B7FF43BAF014602203B
:107CB000FFF724FF35E7DDE9092301218DF80010E6
:107CC000CDE90223DBE7D4E9042301218DF8141068
:107CD000CDE90723A2E72F67B5E700232B672370C1
:107CE0001D46B2E77C34002080340020F8340020A8
:107CF000F0B5344C636F87B0CBB1256F324FEE00D7
:107D0000731B04EB830301211A793970002A34D0E4
:107D10008A420ED1D3E903031844FFF7ABFE0028D3
:107D20003FD0112805D1002201233A707B7007B0A3
:107D3000F0BD731B9B00E718E3589B68002BF6D03F
:107D4000142201A800210AF064FBBA683B7905926D
:107D5000032202926BB3012B07D1FB687A6904926C
:107D60001B03022203938DF80420751B01A854F80D
:107D700025309B68984707B0F0BDD3E90520121A5B
:107D8000B2F5805F28BF4FF48052D3E90313920805
:107D9000012A38BF012201441844FFF769FE002878
:107DA000BFD1FB78002BC2D101460220FFF7A6FE0F
:107DB000BDE7D7E9042301218DF80410CDE90323A1
:107DC000D3E700BF803400207C3400202DE9F84F39
:107DD0001A4E746F042C2AD0356F2544032D88BFAA
:107DE000043DC5EBC505AD0006EB050B9046894685
:107DF00082461C220021013458461F4674670AF04F
:107E000008FB0F4B0A991A7846F805A00020CBF81A
:107E10000810CBE90389CBF814708BF804000AB181
:107E2000BDE8F88F5C782CB11046BDE8F88F20468D
:107E3000BDE8F88FFFF75CFF2046F1E780340020B3
:107E40007C3400202DE9F04FDFF8888098F802405C
:107E500083B064BB1E4F7C6F042C2CD03D6F01920D
:107E60002544032D88BF043DC5EBC505AD0007EBD8
:107E700005090E4683461C220134484600219A46D5
:107E80007C670AF0C6FA98F80000019B47F805B035
:107E9000360B0122C9F808A0C9F81430C9F80C60E3
:107EA00089F8042058B1002003B0BDE8F08F082005
:107EB00003B0BDE8F08F204603B0BDE8F08F98F81E
:107EC0000140002CF0D1FFF713FF2046ECE700BF84
:107ED000803400207C340020012802D0032800D008
:107EE0007047F0B5364C374B626FA0F10100B0FA25
:107EF00080F04009002187B0D8709970002A34D0F2
:107F0000256FEE00721B04EB8202012011791870BC
:107F100069B3814208D1D2E903021044FFF7AAFDF8
:107F2000002844D0112835D0731B9B00E718E35874
:107F30009B68D3B1142201A800210AF06AFABA683A
:107F40003B790592032202924BB3012B07D1FB68C8
:107F50007A6904921B03022203938DF80420751B97
:107F600001A854F825309B68984707B0F0BDD2E9C6
:107F70000570D2E9031C3A1AB2F5805F28BF4FF4AE
:107F800080529208012A014438BF01226044FFF761
:107F90006FFDC5E70021012219705A70E5E7D7E9A6
:107FA000042301218DF80410CDE90323D7E7DB7802
:107FB000002BDAD101460220FFF7A0FDD5E700BF74
:107FC000803400207C340020FFF7ECB82DE9F0412C
:107FD000058ACE1C043D2E440746B6FBF5F6FFF796
:107FE000FDF878B3F6B24FF48073013E0446C580C5
:107FF0000760838027D08046002509E06379AE4280
:1080000003F101036371C8F80000076080461AD0CD
:108010003846FFF7E3F801350028EFD16679721E84
:1080200014D02346013082421B68FBD11F684EB139
:10803000002523682146013538461C46FFF7F6F82F
:10804000AE42F6D100242046BDE8F0812768EFE774
:1080500010B40430012350E8002F02EB030140E884
:10806000001494F0000FF6D15DF8044B704700BF88
:108070000146021DF8B5012052E8004FA4EB0003B1
:1080800042E8003595F0000FF6D113F0FF0300D061
:10809000F8BD4E79701E11D00A460133984212681D
:1080A000FBD11768002EF3D000240D680134384648
:1080B000FFF7BCF8A6422946F7D1F8BD0F68F3E7F1
:1080C0002DE9F8430446181DE688B0FBF6F30F4689
:1080D000904606FB130013B1013B2468FCD1351A0E
:1080E000454528BF4546B8F1000F15D04FF00009AF
:1080F0000430A8EB050820442A4607EB09010AF0E2
:1081000064F94645A944246835464FF0000028BF6D
:108110004546B8F1000FEBD1BDE8F8832DE9F843EF
:10812000C688043304460F46B3FBF6F0904606FBC0
:10813000103110B101382468FCD1751A454528BFAB
:108140004546B8F1000F15D04FF000090431214425
:10815000A8EB05082A4607EB09000AF036F9464560
:10816000A944246835464FF0000128BF4546B8F1C0
:10817000000FEBD1BDE8F88301600B6843604A68EB
:10818000934204BF00234360704700BF436843B17C
:10819000026891680B4443605268934204BF002315
:1081A0004360704730B4184DA5F1F002AB1ADB10F4
:1081B00003EBD3735B1002EBC30152F833309842E8
:1081C00028BF0C4605D311E052F8333098420CD248
:1081D00021468B1ADB1003EBD3735B108A4202EB50
:1081E000C304F1D3094830BC70470D46984204D906
:1081F00004F10802AA42D9D3F4E76068034B0028CF
:1082000008BF1846EFE700BFD8380300D437030093
:1082100010B40023012401E0202B0AD004FA03F259
:10822000024299B203F10103F6D008465DF8044B0F
:1082300070474FF6FF7108465DF8044B704700BF6A
:10824000A0B199B130B40238002402E00134202CEE
:108250000AD030F8025F9542F8D1012202FA04F404
:108260000A6823B122430A6030BC7047704722EA93
:1082700004020A6030BC704770B49DF80C60D0B145
:10828000C9B1C2B10238002402E00134202C12D05E
:1082900030F8025F9D42F8D1012301EB820203FA1C
:1082A00004F4E043043A04393EB951F8043F034072
:1082B00091420B60F9D170BC704751F8043F2343E1
:1082C00091420B60F7D051F8043F234391420B6079
:1082D000F3D1F0E7A0B110B40238002302E001337B
:1082E000202B0ED030F8024F9442F8D1012202FA2E
:1082F00003F30B4214BF104600205DF8044B704797
:10830000704700205DF8044B704700BFF0B491B196
:1083100000252B46012606FA03F4144205D000EB93
:10832000450431F81370A78001350133202BF2D1B9
:108330000560F0BC70470D460560F0BC704700BF9B
:108340000A7B10B4D1E90043002A0ABF2346002269
:108350000122027103605DF8044B704710B40346BC
:1083600000791C688A6840B14868011B91420ED9A7
:10837000A01818605DF8044B70470868211A9142F4
:108380000BD8012218601A715DF8044B7047002267
:1083900018601A715DF8044B7047A01A18605DF8F8
:1083A000044B7047054A4FF0A043105CD3F80435E6
:1083B00023FA00F0C04300F001007047E43B0300E3
:1083C000044B195C4FF0A04201238B40C2F80C35DE
:1083D000704700BFE43B0300044B195C4FF0A04220
:1083E00001238B40C2F80835704700BFE43B03000F
:1083F0004FF0A04310B44FF480204FF400344FF4FA
:1084000000214FF48012C3F80845C3F80805C3F8EB
:108410000815C3F808255DF8044B70474FF0A043DA
:1084200010B44FF480204FF400344FF400214FF487
:108430008012C3F80C45C3F80C05C3F80C15C3F83B
:108440000C255DF8044B7047074B4FF0A041185CBA
:10845000D1F804350122824022EA03001340C1F81A
:108460000805C1F80C357047E43B030030B44FF009
:10847000A04303224FF400354FF480244FF4002032
:108480004FF48011C3F84427C3F84827C3F84C279A
:10849000C3F85027C3F80855C3F80845C3F80805C2
:1084A000C3F8081530BC7047054A4FF0A043105C74
:1084B000D3F8103523FA00F0C04300F001007047F4
:1084C000E03B03000D2809D00E2809D00F2809D061
:1084D00010280CBF03204FF0FF307047002070477A
:1084E0000120704702207047014B185C704700BFA5
:1084F000E03B030060B910B5064CA3683BB1D3E97B
:1085000000230020A2609847A368002BF7D110BD7C
:10851000704700BFFC34002010B5012882B029D07C
:1085200022D303281ED10721002000F093F802A8CF
:108530000023264C00F8013DFCF7C4FBE368013B37
:10854000E360E36853B9224B01221A604FF0804286
:10855000D2F8183413F48033FAD1A3709DF80700D1
:10856000FCF7D6FB02B010BD1A4B0122C3F88020E5
:1085700002B010BD02A80023144C00F8013DFCF726
:10858000A1FB237853B1E3689DF807000133012272
:10859000E360A270FCF7BCFB02B010BD0D4A636043
:1085A000A3602361E360106810F001000AD009F0B5
:1085B0000FFD20B94FF080430122C3F81825012395
:1085C0002370E0E7072100F045F8F0E7FC340020D5
:1085D0000C00004000E100E010B51B4B1A6882B0AF
:1085E000AAB100221A601B6800934FF08043012259
:1085F000164C0099C3F80823A36862703BB1D3E915
:1086000000230020A2609847A368002BF7D1104BED
:108610001A68B2B100221A601B6801934FF08043C0
:1086200002220A4C0199C3F8082323690122A2708F
:108630003BB1D3E900230120226198472369002B35
:10864000F7D102B010BD00BF00010040FC34002093
:10865000040100404901002810B4C9B2C3B215DBBF
:1086600000F1604202F5614282F800134009800087
:1086700000F1604000F5614003F01F0201239340C8
:10868000C0F8803103605DF8044B7047024A03F084
:108690000F0422441176E9E7FCEC00E030B5194CF8
:1086A00094F8545083B055BB4FF0FF330721062098
:1086B000C4E90033C4E90233C4E90433C4E906332E
:1086C000C4E90833C4E90A33C4E90C33C4E90E33FE
:1086D000C4E91033C4E912332365FFF7BBFF0A4B2B
:1086E0000A4A1D601B68019301984FF00043012165
:1086F000284684F85410C2F8043303B030BD082073
:1087000003B030BD103500207C61004000600040A7
:10871000034B93F85400003018BF0120704700BF8E
:1087200010350020F0B4654B1C1894F93050002D22
:1087300066DACE78002E5DD11D6A013500F0AD807D
:1087400009240C2553F8247001375DD004F1010C85
:1087500053F82C70013700F0AA8004F1020CAC45EC
:1087600045D253F82C70013700F0A18004F1030CBE
:10877000AC453CD253F82C70013700F0988004F1DE
:10878000040CAC4533D253F82C70013700F08F80C5
:1087900004F1050CAC452AD253F82C70013700F0D7
:1087A000868004F1060CAC4521D253F82C700137B9
:1087B0007DD004F1070CAC4519D253F82C70013769
:1087C00075D004F1080CAC4511D253F82C70013768
:1087D0006DD004F1090CAC4509D253F82C70013767
:1087E00065D00A34AC4202D2DC6A01340BD00420DA
:1087F000F0BC70471D6801355BD001240825A1E756
:108800000820F0BC70470B241F1865B243F82420E1
:1088100087F83050002E46D08A78B2B1820002F13B
:10882000A042D2F8004724F00204C2F80047CA78F8
:108830000978B2B9083D2B44104693F8502042EA1B
:10884000811183F85010F0BC70474C7800F5E0724D
:108850004FF0A046A40046F82240CA780978002AC2
:10886000E8D0AB0003F1804303F5C0430002D3F826
:10887000102522F4473222F44072C3F8102509046F
:1088800000F4F850D3F8102501F4403101431143AE
:10889000C3F810150020F0BC7047082684F830603B
:1088A0001A62354634461C4484F84800B4E76446EE
:1088B000AAE700251A6084F83050ADE71035002093
:1088C00070B42E4D2E1883B096F93030072B1CDD76
:1088D0002B4493F848309B09032B41D0012B14BF44
:1088E0004FF440314FF40031800000F1A040D0F847
:1088F000002722F44032C0F80027D0F800370B439D
:10890000C0F8003703B070BC7047DAB2072AF9D854
:10891000980000F1804000F5C04003F14002D0F81B
:108920001045920092B244F0010402F18042C0F876
:10893000104502F5C04200200190019C1060002902
:10894000E0D096F9302055F82220002ADAD0012212
:108950000B4902FA03F3C1F8043303B070BC70474B
:108960004FF0A043D3F81035C34013F0010F0CBFF4
:108970004FF400314FF44031B6E700BF103500200E
:10898000006000404FF0A043D3F8103523FA00F008
:1089900000F00100704700BF2DE9F04186B00023D0
:1089A000A14A01931668012E00F054811E469F4B88
:1089B0001A68012A00F05D819D4B1A68012A00F0B7
:1089C0006A819C4B1A68012A00F077819A4B1A68D9
:1089D000012A00F08481994B1A68012A00F09181E4
:1089E000974B1A68012A00F09E81964B1A68012A5B
:1089F0000CD0954B1B68012B00F0A58116F0FF0FE2
:108A000015D1002E30DB06B0BDE8F0818F4AD2F8D8
:108A100004231706EDD500221A601A680492603309
:108A2000049A1B68012B46F0800600F08C81884F69
:108A300000240125A30003F18043354203F5C04320
:108A40004FEA45050BD0D3F8100557F82420D3F88A
:108A50001015C0F30420C1F3014102B19047013465
:108A6000082CE7D1002ECEDA00224FF0FF33CDE9FB
:108A70000223774C012602AF94F950305D1C2CD0B4
:108A8000DBB223F0C00006AA4FEAD00C02EB0C0EBA
:108A900003F007021EF80C1C06FA02F211421CD069
:108AA0002518990995F9303054F82330002B00F03F
:108AB0009881032900F098814FEA800C0CF1A04CBA
:108AC0001EF8145CDCF800E71540CEF3014E40F0D0
:108AD0005C81BEF1030F00F0DE81002594F9513076
